:020000040800F2
:10000000D00900200D02000865050008F303000870
:1000100061050008BD020008730E00080000000022
:10002000000000000000000000000000350A000889
:10003000C10200080000000027090008110C000898
:1000400027020008270200082702000827020008EC
:1000500027020008270200082702000827020008DC
:1000600027020008270200082702000827020008CC
:1000700027020008270200082702000827020008BC
:1000800027020008270200082702000827020008AC
:10009000270200082702000827020008270200089C
:1000A000270200082702000827020008270200088C
:1000B000270200082702000827020008270200087C
:1000C000270200082702000827020008270200086C
:1000D000270200088D0D00082702000827020008EB
:1000E000270200082702000827020008270200084C
:1000F000270200082702000827020008270200083C
:10010000270200082702000827020008270200082B
:10011000270200082702000827020008270200081B
:10012000270200082702000827020008270200080B
:1001300000F002F800F05AF80AA090E8000C82449F
:100140008344AAF10107DA4501D100F04FF8AFF27C
:10015000090EBAE80F0013F0010F18BFFB1A43F0A5
:100160000103184774200000942000000A444FF057
:10017000000C10F8013B13F0070408BF10F8014B06
:100180001D1108BF10F8015B641E05D010F8016B4B
:10019000641E01F8016BF9D113F0080F1EBF10F8AF
:1001A000014BAD1C0C1B09D16D1E58BF01F801CBD2
:1001B000FAD505E014F8016B01F8016B6D1EF9D555
:1001C0009142D6D37047000000230024002500266A
:1001D000103A28BF78C1FBD8520728BF30C148BFAA
:1001E0000B6070471FB51FBD10B510BD00F033F890
:1001F0001146FFF7F7FF00F00DFF00F051F803B4D0
:10020000FFF7F2FF03BC00F093FE000009488047AF
:1002100009480047FEE7FEE7FEE7FEE7FEE7FEE7E8
:10022000FEE7FEE7FEE7FEE704480549054A064B00
:1002300070470000150C000831010008D0030020B1
:10024000D0090020D0050020D0050020704770475D
:10025000704770477047754600F02CF8AE460500B1
:100260006946534620F00700854618B020B5FFF7D1
:10027000DBFFBDE820404FF000064FF000074FF0D5
:1002800000084FF0000B21F00701AC46ACE8C009B4
:10029000ACE8C009ACE8C009ACE8C0098D467047BD
:1002A00010B50446AFF300802046BDE81040FFF7CC
:1002B000A6BF0000004870477003002000BFFEE7A3
:1002C00070472DE9F041024600250026002000235A
:1002D0000024002791F803C00CF00F0591F803C02B
:1002E0000CF0100CBCF1000F03D091F802C04CEAE6
:1002F000050591F800C0BCF1000F31D01468002052
:100300002BE04FF0010C0CFA00F3B1F800C00CEA3E
:1003100003069E4220D183004FF00F0C0CFA03F726
:10032000BC4305FA03FC4CEA040491F803C0BCF199
:10033000280F06D14FF0010C0CFA00FCC2F814C0D3
:100340000AE091F803C0BCF1480F05D14FF0010C51
:100350000CFA00FCC2F810C0401C0828D1D314606D
:10036000B1F800C0BCF1FF0F34DD546800202EE06E
:1003700000F1080C4FF0010808FA0CF3B1F800C0C6
:100380000CEA03069E4221D183004FF00F0C0CFAB9
:1003900003F7BC4305FA03FC4CEA040491F803C0DC
:1003A000BCF1280F05D100F1080C08FA0CF8C2F8CE
:1003B000148091F803C0BCF1480F07D100F1080C7C
:1003C0004FF0010808FA0CF8C2F81080401C082809
:1003D000CED35460BDE8F0810246002093680B4004
:1003E0000BB1012000E000207047416170470161BE
:1003F000704700BFFEE7000010B54FF4806114485D
:10040000FFF7F3FF012000F0DFFD4FF4006110481B
:10041000FFF7EDFF012000F0D7FD4FF480610C489D
:10042000FFF7E5FF012000F0CFFD4FF40061084821
:10043000FFF7D2FF08B1012400E000244FF48061EF
:100440000348FFF7D2FF012000F0BEFD204610BD9B
:10045000000C014008B50121142000F075FA4FF49A
:100460000050ADF8000028208DF8030069460748C9
:10047000FFF727FF0120ADF8000028208DF80300CA
:1004800069460348FFF71DFF08BD0000001001404A
:100490000008014010B5044614B101201A49087043
:1004A0001948007800B310211848FFF795FF01287C
:1004B00005D001211648FFF78FFF012814D10A202B
:1004C00000F05CFD00201049087010210F48FFF774
:1004D00083FF012800D110BD01210D48FFF77CFFEB
:1004E00001280ED10420F6E710210848FFF774FF19
:1004F00038B901210648FFF76FFF10B90120024902
:1005000008700020E7E70000980200200018014072
:100510000008014008B50121482000F015FA20200C
:10052000ADF8000010208DF8030003208DF80200C4
:1005300069460948FFF7C5FE20210748FFF757FF26
:100540002020ADF8000069460448FFF7BAFE2021DC
:100550000248FFF74CFF08BD000C014000180140A5
:1005600000BFFEE7704770B5002419E004F1B00148
:10057000C8B2002100F0CBF90021084600F0C7F90D
:100580000021102000F0C3F9002505E00121002022
:1005900000F0BDF9681CC5B2802DF7DB601CC4B249
:1005A000082CE3DB70BD000008B50121082000F035
:1005B000CBF94FF44060ADF8000010208DF8030037
:1005C00003208DF8020069460648FFF77AFE4FF4D3
:1005D00080610448FFF70BFF4FF400610148FFF70B
:1005E00006FF08BD000C014010B54FF480610E48B5
:1005F000FFF7FDFE4FF400610B48FFF7F8FE012006
:1006000000F0E2FC4FF400610748FFF7EEFE012026
:1006100000F0DAFC4FF480610348FFF7E6FE0120AA
:1006200000F0D2FC10BD0000000C014010B54FF4EA
:1006300000610B48FFF7D9FE012000F0C5FC4FF424
:1006400080610748FFF7D3FE012000F0BDFC4FF4A6
:1006500000610348FFF7CBFE012000F0B5FC10BDA0
:10066000000C014010B5FFF79FFF4FF4FA7000F047
:1006700085FC0021AE2000F04AF90021084600F078
:1006800046F90021102000F042F90021402000F03E
:100690003EF90021B02000F03AF90021812000F05D
:1006A00036F90021FF2000F032F90021A12000F0EE
:1006B0002EF90021A62000F02AF90021A82000F040
:1006C00026F900213F2000F022F90021C82000F087
:1006D0001EF90021D32000F01AF90021084600F08D
:1006E00016F90021D52000F012F90021802000F039
:1006F0000EF90021D92000F00AF90021F12000F0C4
:1007000006F90021DA2000F002F90021122000F0A1
:10071000FEF80021DB2000F0FAF80021402000F074
:10072000F6F800218D2000F0F2F80021142000F0EE
:10073000EEF80021AF2000F0EAF8FFF714FF0021E7
:10074000084600F001F810BD70B504460D4605F1ED
:10075000B001C8B2002100F0DAF804F00F00002167
:1007600000F0D5F8102141EA1410002100F0CFF874
:1007700070BD2DE9F05F83460E4615461F46DDF835
:100780002880B9464FF0000A31465846FFF7DCFF93
:1007900000240CE0690009FB0181085D012100F0E3
:1007A000B6F80AF1010000F0FF0A601CC4B2102C78
:1007B000F0DB701CC1B25846FFF7C6FF00240DE005
:1007C0006900491C09FB0181085D012100F09FF8C7
:1007D0000AF1010000F0FF0A601CC4B2102CEFDB2C
:1007E000BDE8F09F2DE9F04107460E4690460025F2
:1007F0000024A8F12000C5B27F2F02DD0027B01C25
:10080000C6B231463846FFF79FFF002408E004EBEC
:1008100005110F4A505C012100F079F8601CC4B248
:10082000082CF4DB701CC1B23846FFF78DFF0024A2
:1008300009E004EB05110831054A505C012100F084
:1008400066F8601CC4B2082CF3DBBDE8F081000040
:10085000E61B00082DE9FF5F074691461D460E9EE8
:100860004FF0000A002433E0281B401EC1B20A20CA
:1008700000F088FCB9FBF0F00A21B0FBF1F201FBBB
:100880001208BAF1000F13D1681EA04210DDB8F1B2
:10089000000F0BD1B34606EBDB71491001FB04716D
:1008A000C8B220220199FFF79DFF0FE04FF0010A27
:1008B000B34606EBDB71491001FB0471C8B208F1C5
:1008C0003001CAB20199FFF78DFF00BF601CC4B2AE
:1008D000AC42C9DBBDE8FF9F2DE9F04104460F465D
:1008E000154600260EE0AA5D39462046FFF77AFF3E
:1008F00004F10800C4B2802C02DB0024B81CC7B28B
:10090000701CC6B2A85D0028EDD1BDE8F08170B5BD
:1009100005460C461CB1284600F0FAFA02E02846CB
:1009200000F0E6FA70BD704729B1064AD269024369
:10093000044BDA6104E0034AD2698243014BDA6175
:10094000704700000010024029B1064A9269024334
:10095000044B9A6104E0034A92698243014B9A6115
:10096000704700000010024010B5012015490860D2
:10097000142000F029FB00201349C1F8840107E08E
:100980000021124800F0AEF90021104800F092F961
:100990000C487C3800680028F2D003E001210B48A5
:1009A00000F088F907487C3800680128F6D007482D
:1009B00000F08CF9044600F0A3FE054908600846E3
:1009C000006810BD8401224200002242000800405D
:1009D0009402002008B501211020FFF7B5FF022086
:1009E000ADF8000010208DF8030003208DF8020000
:1009F00069460F48FFF765FC0420ADF80000282089
:100A00008DF8030003208DF8020069460848FFF7BF
:100A100058FC02210648FFF7E8FC04210448FFF7D0
:100A2000E4FC47214FF6FF7000F024F908BD0000F8
:100A300000100140704710B500F002F810BD000032
:100A40000CB50020019000903348006840F48030DD
:100A50003149086000BF3048006800F40030009061
:100A60000198401C0190009818B90198B0F5A06F4A
:100A7000F1D12948006800F4003010B10120009045
:100A800001E0002000900098012843D1234800682D
:100A900040F01000214908600846006820F003007B
:100AA00008600846006840F0020008601A48406884
:100AB000194948600846406848600846406840F464
:100AC000806048600846406820F47C104860084612
:100AD000406840F4E81048600846006840F08070C4
:100AE000086000BF0C48006800F000700028F9D0D2
:100AF0000948406820F003000749486008464068FC
:100B000040F00200486000BF0348406800F00C005D
:100B10000828F9D10CBD000000100240002002405E
:100B20002DE9F04F87B08246504600F0B5FD814672
:100B3000484600F0CDFD5146009000F0C1FE019006
:100B400000F05AFC07460022244B00F057FBCDE989
:100B5000020100F023FB83460024002520A000684A
:100B6000059020A0006804904E4603E00A2096FB02
:100B7000F0F6641C002EF9D15E4603E00A2096FBD5
:100B8000F0F66D1C002EF9D11020E3B24A46022186
:100B900000904820FFF75EFE482101EBC401C8B277
:100BA00005AA0221FFF798FE1020EBB2482101EBC5
:100BB000C40108310090C8B25A460221FFF74AFE2C
:100BC000482101EBC401083101EBC501C8B204AAF8
:100BD0000221FFF781FE07B0BDE8F08F000024403E
:100BE0002E000000636D0000042808D14FF0E021C2
:100BF000096941F004014FF0E022116107E04FF074
:100C0000E021096921F004014FF0E02211617047F1
:100C10007047000010B51348006840F0010011490A
:100C2000086008464068104908400E494860084678
:100C300000680E4908400B4908600846006820F427
:100C4000802008600846406820F4FE0048604FF4A9
:100C50001F008860FFF7EFFE4FF000600449086056
:100C600010BD0000001002400000FFF8FFFFF6FE7C
:100C700008ED00E03EB505460C4601210420FFF7D3
:100C800053FEADF80450ADF800400020ADF806006A
:100C9000ADF802006946064800F026F80122114628
:100CA000034800F016F80021014800F003F83EBDAB
:100CB0000008004021B1028842F00102028004E0F5
:100CC00002884FF6FE731A40028070470146888CF6
:100CD00070471AB183890B43838102E083898B4378
:100CE0008381704781847047002202881D4B98429F
:100CF0000ED01D4B98420BD0B0F1804F08D01B4B4B
:100D0000984205D01A4B984202D01A4B984204D10F
:100D10004FF68F731A404B881A43174B984207D0EF
:100D2000164B984204D04FF6FF431A40CB881A4323
:100D300002808B8883850B8803850A4B98420BD0F1
:100D4000094B984208D00E4B984205D00D4B984263
:100D500002D00D4B984201D10B7A03860123838286
:100D600070470000002C01400034014000040040A6
:100D700000080040000C004000100040001400403B
:100D800000400140004401400048014010B540F2DD
:100D900025511D4800F03EF810B31B4800F064F8E0
:100DA000C4B21A48008800F40040C8B91748008847
:100DB00000F4804060B10A2C03D000201349088061
:100DC00020E01248008840F400401049088019E0F3
:100DD0000D2C06D10D48008840F480400B49088056
:100DE00010E00A480088C0F30D0009490C54074878
:100DF0000088401C0549088008460088C72801DD96
:100E00000020088010BD000000380140A40200202E
:100E1000A802002070B5024600240023002500200F
:100E200040F66A16B14200D100BFC1F3421501F08D
:100E30001F03012606FA03F3012D02D196893340E0
:100E400006E0022D02D1168A334001E0968A334033
:100E50000C12012606FA04F41688344013B10CB1C2
:100E6000012000E0002070BD01468888C0F3080022
:100E7000704700BFFEE7000070B50446002524E07F
:100E80004FF480611948FFF7B0FA012000F09CF898
:100E900004F0800028B14FF400611448FFF7A7FA6E
:100EA00004E04FF400611148FFF79FFA6006040E5A
:100EB000012000F089F84FF480610C48FFF797FAA1
:100EC000012000F081F8681CC5B2082DD8DB4FF472
:100ED00080610648FFF789FA012000F075F800BF2D
:100EE000FFF78AFA0028FBD170BD0000000C01401A
:100EF00010B50446FFF778FB7820FFF7BDFF002010
:100F0000FFF7BAFF2046FFF7B7FFFFF78FFB10BDD3
:100F100010B50446FFF768FB7820FFF7ADFF4020CF
:100F2000FFF7AAFF2046FFF7A7FFFFF77FFB10BDE3
:100F3000014600BF7047000010B56FF00400FFF7D6
:100F400053FE0A4800680A49B0FBF1F009490870ED
:100F50000846007800EB4001C1EBC0104FF6FF716E
:100F600001EAC0000449088010BD00000000002014
:100F700000127A009A0200209C0200200146114AC9
:100F800012884A434FF0E0235A6100229A611A46C0
:100F9000126942F001021A6100BF4FF0E0221069AD
:100FA00000F001021AB100F48032002AF5D04FF0AF
:100FB000E022126922F001024FF0E0231A610022C0
:100FC0009A6170479C0200200146114A12784A43F8
:100FD0004FF0E0235A6100229A611A46126942F0EA
:100FE00001021A6100BF4FF0E022106900F0010217
:100FF0001AB100F48032002AF5D04FF0E0221269D5
:1010000022F001024FF0E0231A6100229A6170473A
:101010009A0200201FB500200390FFF78DFFFFF715
:1010200079FAFFF7D7FCFFF71DFBFFF713FA00244F
:101030004DA103C9CDE901014D4820230022022121
:1010400000901020FFF795FB494820230122022140
:1010500000901846FFF78DFB4548202302221146D9
:1010600000903020FFF785FB414820230322022116
:1010700000904020FFF77DFB3D4820230422022101
:1010800000905020FFF775FB3948202305220221EC
:1010900000906020FFF76DFB4FF47A70FFF76EFF52
:1010A00060E03448006808B9012000E000203149C0
:1010B00008600020FFF7EEF903909DF80C0000286F
:1010C0004DD09DF80C00012822D1FFF74CFA2A4898
:1010D00020230022022100900820FFF74AFB264827
:1010E00020230122022100901820FFF742FB224812
:1010F00020230222114600902820FFF73AFB1E48C9
:1011000020230322022100903820FFF732FB00BF8A
:1011100000BF22E0FFF728FC0746184900F004FB57
:1011200006464FF0804100F0F5F90546144900F0FD
:10113000F1F9044601AA02214820FFF7CDFB204621
:10114000FFF7EEFC6420FFF719FF0020FFF7A2F97C
:1011500003909DF80C0000B100E0DBE702E06420A2
:10116000FFF70CFF9DE7000020202020202020001A
:101170001400002094812142940100200000AA4321
:1011800000401C4610B50246012000E050430B1EF3
:10119000A1F10104E1B2F9D110BD00004FEA410311
:1011A0004FEA5353A3F58063D3F11E03C8BFD3F1B5
:1011B000210C0CDD4FF0004242EAC12242EA5052BB
:1011C00032FA03FC8CEAE17CACEBE1707047102B47
:1011D000C4BF0020704703F5787CBCF1FF3F04D00A
:1011E0006FF0004282EA2100704770B500F0B0F85D
:1011F0004992248000207047F2E70000DFF848C1E0
:1012000070B51CEA111E1EBF1CEA13159EEA0C0FD6
:1012100095EA0C0F00F06F8081EA030423EA4C1377
:101220004EEAD47E21EA4C1141F4801143F480133C
:10123000AE44A1FB024CA0FB0365AEF17F7E3619E4
:1012400055EB0C05A1FB034C4CF10003A0FB021C69
:1012500016EB0C06654153F10003094218BF46F036
:10126000010613F4007F0BD14FEA03314FEA05303A
:10127000340341EA155140EA16506FF003020AE0C8
:101280004FEAC3214FEAC520F40241EA555140EA32
:1012900056506FF0020202EB2E4201EB025585EA36
:1012A000CE710AD05FEA440C18BF24F0004450F11C
:1012B000000041F1000120EAD47040F2FE7C62455A
:1012C00000D270BDA84214BF4FF080444FF040449C
:1012D000002E08BF0024BEF1806FA8BFA1F1C0415D
:1012E000BDE8704080F282804FF0000001F1C04103
:1012F00001F0004170479EEA0C0F0CEA131518BF6D
:1013000095EA0C0F06D04FF0000081EA030E0EF0B4
:10131000004170BD00F01CF88900013E00F007B8E4
:1013200000F009B84FEA430C5FEA5C5C08D081EA40
:10133000030100F05BB84FEA410C5FEA5C5CF6D158
:101340004FF00000014970470000FF070000F87FE0
:101350000EF1020E2EF0030E5EF8046B364205D439
:10136000012A43EB030515F5001F12D8012841EBB4
:10137000010C1CF5001F0CD80ED14FEAD17C15F5DD
:10138000001F0CEB4C0C0CF1020C08BF4CEBD37C97
:1013900004E04FF0080C01E04FEAD37C0CEB4C0565
:1013A00026FA05F606F00706B6F1040C06D20EEB97
:1013B000860CBDE870404CF0010C6047DFE80CF093
:1013C000090B02024FF000414FF00000A1F500218F
:1013D00070BD19461046012851EB010418BFD4F521
:1013E000001484BF002001F0004170BD0808A0F582
:1013F00000114FEA3101704743004FEAD30C4FEA26
:101400003C0C43401FBF40070CF1605113F0FE4FEE
:1014100070471CF0006F03D100200CF000417047B2
:101420000CF0004343EA507010B540EACC0000F0E5
:10143000FCF900BF000000924FEA0001FFF7D6BFA1
:101440004FF000414FF00000A1F50021704700006F
:1014500090EA010F48BF81F0004100F14282421A38
:101460003CBF801A89184FEAD0524FF07F4C1CEADB
:10147000410FA2EBD15318BF9CEA026F00F03B80F2
:101480004FF0004C4CEA00204CEA012121FA03FC09
:1014900010EB0C0C1ED202F1FF325FEA1C2040EB75
:1014A000C25038BF70471CF07F0F4FEA400C18BF86
:1014B000BCF17F4F38BF7047C3F12003994008BF8C
:1014C00020F00100BCF17F4F38BF7047A0F1C04051
:1014D00000F0F1B94FEA3C00000A40EBC25028BFCF
:1014E0001CF0FF0F4FEA400CE6D018BFBCF17F4F55
:1014F00038BF7047EAE79CEA026F05D010EA5C0F3C
:1015000008BF00F00040704710B500F08EF900BF32
:1015100064FBBE3E4FF47F0C1CEAD0121EBF1CEAD7
:10152000D11392EA0C0F93EA0C0F00F0858090EA39
:10153000010F48BF42F4807240F4000C41F40000F7
:101540002CF07F4120F07F4000B58142A2EB0302E6
:101550000FF2081CACEB504EC0F100009EF800E00A
:101560004FEA4E0E00FB0EFC38BF49004FEA2C1C20
:1015700002F5FA020CFB0EF34FEACE1E4FEA112CD5
:101580004FEAC1210EEB635E42EB22420EFB0CFCE4
:101590004FEA1C5300FB03114FEA112C4FEA0131B3
:1015A0000EFB0CFC4FEADC4C00FB0C11C14228BFC7
:1015B00009184CEB03335DF804EB10EB410143EBEE
:1015C000C250B2F57C0F38BF704729D512F0F00F2A
:1015D0001CBF00F1C04000F00040704700818283D2
:1015E0008485868788898B8C8D8E8F919293959632
:1015F00097999A9C9D9FA0A2A3A5A7A8AAACAEB0BC
:10160000B2B3B5B7B9BCBEC0C2C5C7C9CCCED1D4C0
:10161000D7D9DCDFE2E6E9ECF0F3F7FAFE000000F0
:101620004FEA400C0CF1807CBCF17E4F28BF704724
:10163000B0F1C04000F03FB990EA010F0CEAD113BD
:1016400048BF42F48072624538BF634507D213F445
:101650007F0F16D080EA010000F00040704710B5FF
:1016600000F0E3F8097EFC3E00F005B880EA0100D6
:1016700000F00040704780EA010000F0004000F0F8
:101680001AB912F47F0F04BF0248704780EA0100C4
:1016900000F011B90000C07F41000B0ED3F19E0293
:1016A00008D950F400034FEA032323FA02F048BF9D
:1016B0004042704710B500F0B8F800BF499224804E
:1016C000002070476FF0004282EA2000704700005F
:1016D00010F0004148BF4042B0FA80F310FA03F224
:1016E000C3F19D030BD051EAC35101EB1220530605
:1016F00038BF704700F1010008BF20F001007047BB
:10170000B0FA80F310FA03F2C3F19D030AD0D905B1
:1017100001EB1220530638BF704700F1010008BFEB
:1017200020F00100704700004FF47F0C1CEAD0123B
:101730001EBF1CEAD11392EA0C0F93EA0C0F00F0C3
:10174000478090EA010F48BF42F480724FF0004C8E
:101750004CEA00204CEA012102EB0302A0FB01133A
:10176000A2F50002002918BF43F001035B0028BF67
:101770004FEA330342EB22425FEA132C4CEBC25098
:101780002EBFBCEB436FB2F57C0F70474FEA036C82
:10179000BCF1004F08BF20F00100B2F57C0F38BF4C
:1017A00070470BD582F0FF0212F5803FC8BF70472B
:1017B00000F1C040D8BF00F00040704700F5000CB9
:1017C0005FEA4C0C48BF7047B0F1C04000F073B8FE
:1017D00090EA010F0CEAD11348BF42F480726245CF
:1017E00038BF634504D280EA010000F00040704732
:1017F00010B500F01AF800BF8900013E00F007B8EC
:1018000000F009B85FEA410C5FEA1C6C08D080EA7E
:10181000010000F050B85FEA400C5FEA1C6CF6D1A2
:101820004FF00040A0F5800070470EF1020E2EF040
:10183000030E5EF8044B244204D44FEA4102B2F195
:101840007F4F11D84FEA4003B3F17F4F0CD80ED130
:101850004FEAD07CB2F17F4F0CEB4C0C0CF1020C38
:1018600008BF4CEBD17C04E04FF0080C01E04FEADC
:10187000D17C0CEB4C0324FA03F404F00704B4F11C
:10188000040C06D20EEB840CBDE810404CF0010CA9
:101890006047DFE80CF0070802024FF00040A0F5B7
:1018A000800010BD0846420018BFD2F1807288BF88
:1018B00000F0004010BDFF2141EAD050C005704744
:1018C00080F0004090EA010F7FF5C9AD81F0004142
:1018D00000F007B890EA010F48BF81F000413FF5E2
:1018E000BEAD421A04D882F00042A0EB02001144BF
:1018F0004FEAD0524FF07F4C1CEA410FA2EBD1537C
:1019000018BF9CEA026F4AD04FF0004C4CEA00200E
:101910004CEA012121FA03FCB0EB0C0C0FD412F0BD
:10192000FE0F36D05FEA4C001DD5001240EBC250CE
:1019300038BF70471CF03F0F18BF70470BE0A2F193
:1019400001025FEA1C2040EBC25038BF70471CF018
:101950007F0F18BF7047C3F12003994014BF401E8A
:1019600020F00100704780084FEA122308BF70473B
:10197000B0FA80FCA2EB0C02CCF1280C60FA0CF05F
:1019800093EA122F04BF00EBC25070474FEAC370B6
:101990007047130A5FEADC1008BF7047F6E79CEA5D
:1019A000026F04D010EA5C0F08BF0020704710B52A
:1019B000FFF73BFF40DFF63E81F00040704700003C
:1019C000000000000000002F0000000007000700DA
:1019D00000147F147F1400242A7F2A1200626408F6
:1019E0001323003649552250000005030000000073
:1019F0001C224100000041221C000014083E081473
:101A00000008083E0808000000A060000008080860
:101A10000808000060600000002010080402003E7A
:101A20005149453E0000427F400000426151494615
:101A3000002141454B31001814127F100027454505
:101A40004539003C4A494930000171090503003617
:101A50004949493600064949291E0000363600002A
:101A6000000056360000000814224100001414142F
:101A7000141400004122140800020151090600322A
:101A80004959513E007C1211127C007F4949493668
:101A9000003E41414122007F4141221C007F4949D3
:101AA0004941007F09090901003E4149497A007F07
:101AB0000808087F0000417F4100002040413F01AD
:101AC000007F08142241007F40404040007F020C0C
:101AD000027F007F0408107F003E4141413E007FAD
:101AE00009090906003E4151215E007F0919294676
:101AF0000046494949310001017F0101003F404052
:101B0000403F001F2040201F003F4038403F0063FF
:101B10001408146300070870080700615149454321
:101B200000007F41410000552A552A5500004141DF
:101B30007F000004020102040040404040400000D9
:101B400001020400002054545478007F4844443873
:101B500000384444442000384444487F00385454FA
:101B6000541800087E0901020018A4A4A47C007F78
:101B7000080404780000447D4000004080847D001B
:101B8000007F102844000000417F4000007C0418C2
:101B90000478007C0804047800384444443800FC8D
:101BA000242424180018242418FC007C08040408A9
:101BB00000485454542000043F444020003C40401E
:101BC000207C001C2040201C003C4030403C004455
:101BD00028102844001CA0A0A07C004464544C445D
:101BE000141414141414000000000000000000007D
:101BF000000000000000000000F8000000000000ED
:101C000000333000000000100C06100C060000002D
:101C100000000000000040C07840C0784000043F51
:101C200004043F040400007088FC08300000001821
:101C300020FF211E0000F008F000E0180000002145
:101C40001C031E211E0000F00888700000001E21E9
:101C500023241927211010160E0000000000000098
:101C6000000000000000000000E018040200000076
:101C700000071820400000020418E00000000040A7
:101C8000201807000000404080F080404000020221
:101C9000010F01020200000000F00000000001013D
:101CA000011F01010100000000000000000080B0E1
:101CB00070000000000000000000000000000001B3
:101CC00001010101010100000000000000000030DE
:101CD0003000000000000000000080601804006078
:101CE00018060100000000E010080810E000000FD6
:101CF000102020100F00001010F80000000000203D
:101D0000203F202000000070080808887000003084
:101D1000282422213000003008888848300000182C
:101D2000202020110E000000C02010F80000000745
:101D30000424243F240000F80888880808000019BB
:101D4000212020110E0000E0108888180000000FEC
:101D5000112020110E0000380808C83808000000C3
:101D6000003F000000000070880808887000001C18
:101D7000222121221C0000E010080810E0000000D1
:101D8000312222110F00000000C0C000000000003E
:101D90000030300000000000008000000000000063
:101DA000806000000000000080402010080000015A
:101DB000020408102000404040404040400004041D
:101DC00004040404040000081020408000000020E7
:101DD000100804020100007048080808F000000024
:101DE000003036010000C030C828E810E0000718B5
:101DF000272423140B000000C038E0000000203C22
:101E000023020227382008F8888888700000203FC5
:101E1000202020110E00C0300808080838000718DC
:101E200020202010080008F808080810E000203FD3
:101E3000202020100F0008F88888E8081000203FB4
:101E400020202320180008F88888E8081000203F88
:101E5000200003000000C030080808380000071800
:101E60002020221E020008F808000008F808203F81
:101E7000210101213F20000808F808080000002087
:101E8000203F2020000000000808F8080800C0805B
:101E900080807F00000008F888C028180800203FD4
:101EA00020012638200008F8080000000000203F2C
:101EB00020202020300008F8F800F8F80800203F23
:101EC000003F003F200008F830C00008F808203F1D
:101ED000200007183F00E01008080810E0000F106D
:101EE000202020100F0008F808080808F000203F04
:101EF000210101010000E01008080810E0000F189F
:101F0000242438504F0008F8888888887000203FC3
:101F10002000030C302000708808080838000038C2
:101F2000202121221C00180808F8080818000000C9
:101F3000203F2000000008F808000008F808001FF3
:101F4000202020201F000878880000C838080000E2
:101F500007380E010000F80800F80008F800033CFC
:101F60000700073C030008186880806818082030C4
:101F70002C03032C30200838C800C83808000000A3
:101F8000203F2000000010080808C838080020384A
:101F9000262120201800000000FE0202020000009E
:101FA000007F40404000000C30C0000000000000F6
:101FB00000010638C00000020202FE0000000040DE
:101FC00040407F0000000000040202020400000004
:101FD0000000000000000000000000000000808001
:101FE00080808080808000020204000000000000E9
:101FF00000000000000000008080808000000019C8
:10200000242222223F2008F8008080000000003FA8
:10201000112020110E000000008080800000000EC2
:10202000112020201100000000808088F800000EA0
:10203000112020103F200000808080800000001FC1
:10204000222222221300008080F088888818002035
:10205000203F202000000000808080808000006BF6
:1020600094949493600008F8008080800000203FE2
:10207000210000203F2000809898000000000020F0
:10208000203F20200000000000809898000000C041
:102090008080807F000008F8000080808000203F62
:1020A00024022D302000000808F800000000002065
:1020B000203F202000008080808080808000203FA2
:1020C00020003F20003F8080008080800000203F73
:1020D000210000203F200000808080800000001F41
:1020E000202020201F00808000808000000080FFD2
:1020F000A12020110E000000008080808000000ED2
:10210000112020A0FF80808080008080800020201F
:102110003F2120000100000080808080800000338B
:10212000242424241900008080E080800000000026
:10213000001F202000008080000000808000001F21
:10214000202020103F2080808000008080800001BF
:102150000E300806010080800080008080800F30F3
:102160000C030C300F000080800080808000002075
:10217000312E0E31200080808000008080808081A0
:102180008E70180601000080808080808000002111
:10219000302C2221300000000000807C0202000070
:1021A0000000003F404000000000FF000000000071
:1021B0000000FF0000000002027C800000000040E0
:1021C000403F00000000000601010202040400007C
:1021D0000000000000000000F821000800000020BE
:1021E000A80200006C01000814230008A8020020C7
:1021F00028070000C80100081184A24A0420090130
:10220000020304060708091FC04040407F4801043C
:1022100012C80808280880403704041464030C110D
:102220000710E0202B8088013AFF06031380801AF4
:102230007C602B407F050213FC001011101010FF72
:102240009020988888E98E8888A8981D0242817F0E
:10225000660F11844B281028475F0010114030EFA3
:10226000242480E49C105454FF547C100810100166
:10227000017F21512618274445455F454544C01D2F
:10228000828282FE044906091161558040300F02A6
:1022900015FF171010F01F10F008091040E0584704
:1022A000405060C0A02622150816211BFE420102E4
:1022B00013FE163E22E2223E2BFE22010311E20211
:1022C00017203F201F11112B7F4401031147401895
:1022D0000D040404F484D4A5A6A4D484F40C01123F
:1022E000000E13FE0202123A1613121A3242827EB6
:1022F000180920222C2020E03F20010213E01008C2
:10230000804020100806010635014680403F03202A
:042310003636F2016A
:0400000508000131BD
:00000001FF
